{
  "address": "0x2aDe025FDB7577F0427f5Bb3B286d1E4E4A75521",
  "abi": [
    {
      "inputs": [
        {
          "internalType": "string",
          "name": "name",
          "type": "string"
        },
        {
          "internalType": "string",
          "name": "symbol",
          "type": "string"
        },
        {
          "internalType": "string",
          "name": "_baseUri",
          "type": "string"
        },
        {
          "internalType": "uint24",
          "name": "_totalSupply",
          "type": "uint24"
        }
      ],
      "stateMutability": "nonpayable",
      "type": "constructor"
    },
    {
      "anonymous": false,
      "inputs": [
        {
          "indexed": true,
          "internalType": "address",
          "name": "owner",
          "type": "address"
        },
        {
          "indexed": true,
          "internalType": "address",
          "name": "approved",
          "type": "address"
        },
        {
          "indexed": true,
          "internalType": "uint256",
          "name": "tokenId",
          "type": "uint256"
        }
      ],
      "name": "Approval",
      "type": "event"
    },
    {
      "anonymous": false,
      "inputs": [
        {
          "indexed": true,
          "internalType": "address",
          "name": "owner",
          "type": "address"
        },
        {
          "indexed": true,
          "internalType": "address",
          "name": "operator",
          "type": "address"
        },
        {
          "indexed": false,
          "internalType": "bool",
          "name": "approved",
          "type": "bool"
        }
      ],
      "name": "ApprovalForAll",
      "type": "event"
    },
    {
      "anonymous": false,
      "inputs": [
        {
          "indexed": true,
          "internalType": "address",
          "name": "previousOwner",
          "type": "address"
        },
        {
          "indexed": true,
          "internalType": "address",
          "name": "newOwner",
          "type": "address"
        }
      ],
      "name": "OwnershipTransferred",
      "type": "event"
    },
    {
      "anonymous": false,
      "inputs": [
        {
          "indexed": false,
          "internalType": "address",
          "name": "account",
          "type": "address"
        }
      ],
      "name": "Paused",
      "type": "event"
    },
    {
      "anonymous": false,
      "inputs": [
        {
          "indexed": false,
          "internalType": "uint256",
          "name": "price",
          "type": "uint256"
        }
      ],
      "name": "PriceSet",
      "type": "event"
    },
    {
      "anonymous": false,
      "inputs": [
        {
          "indexed": true,
          "internalType": "address",
          "name": "from",
          "type": "address"
        },
        {
          "indexed": true,
          "internalType": "address",
          "name": "to",
          "type": "address"
        },
        {
          "indexed": true,
          "internalType": "uint256",
          "name": "tokenId",
          "type": "uint256"
        }
      ],
      "name": "Transfer",
      "type": "event"
    },
    {
      "anonymous": false,
      "inputs": [
        {
          "indexed": false,
          "internalType": "address",
          "name": "account",
          "type": "address"
        }
      ],
      "name": "Unpaused",
      "type": "event"
    },
    {
      "inputs": [
        {
          "internalType": "address",
          "name": "to",
          "type": "address"
        },
        {
          "internalType": "uint256",
          "name": "tokenId",
          "type": "uint256"
        }
      ],
      "name": "approve",
      "outputs": [],
      "stateMutability": "nonpayable",
      "type": "function"
    },
    {
      "inputs": [
        {
          "internalType": "address",
          "name": "owner",
          "type": "address"
        }
      ],
      "name": "balanceOf",
      "outputs": [
        {
          "internalType": "uint256",
          "name": "",
          "type": "uint256"
        }
      ],
      "stateMutability": "view",
      "type": "function"
    },
    {
      "inputs": [],
      "name": "baseUri",
      "outputs": [
        {
          "internalType": "string",
          "name": "",
          "type": "string"
        }
      ],
      "stateMutability": "view",
      "type": "function"
    },
    {
      "inputs": [
        {
          "internalType": "uint256",
          "name": "tokenId",
          "type": "uint256"
        }
      ],
      "name": "getApproved",
      "outputs": [
        {
          "internalType": "address",
          "name": "",
          "type": "address"
        }
      ],
      "stateMutability": "view",
      "type": "function"
    },
    {
      "inputs": [
        {
          "internalType": "address",
          "name": "owner",
          "type": "address"
        },
        {
          "internalType": "address",
          "name": "operator",
          "type": "address"
        }
      ],
      "name": "isApprovedForAll",
      "outputs": [
        {
          "internalType": "bool",
          "name": "",
          "type": "bool"
        }
      ],
      "stateMutability": "view",
      "type": "function"
    },
    {
      "inputs": [
        {
          "internalType": "address",
          "name": "_to",
          "type": "address"
        }
      ],
      "name": "mintTicket",
      "outputs": [
        {
          "internalType": "uint256",
          "name": "",
          "type": "uint256"
        }
      ],
      "stateMutability": "payable",
      "type": "function"
    },
    {
      "inputs": [],
      "name": "name",
      "outputs": [
        {
          "internalType": "string",
          "name": "",
          "type": "string"
        }
      ],
      "stateMutability": "view",
      "type": "function"
    },
    {
      "inputs": [],
      "name": "owner",
      "outputs": [
        {
          "internalType": "address",
          "name": "",
          "type": "address"
        }
      ],
      "stateMutability": "view",
      "type": "function"
    },
    {
      "inputs": [
        {
          "internalType": "uint256",
          "name": "tokenId",
          "type": "uint256"
        }
      ],
      "name": "ownerOf",
      "outputs": [
        {
          "internalType": "address",
          "name": "",
          "type": "address"
        }
      ],
      "stateMutability": "view",
      "type": "function"
    },
    {
      "inputs": [],
      "name": "pause",
      "outputs": [],
      "stateMutability": "nonpayable",
      "type": "function"
    },
    {
      "inputs": [],
      "name": "paused",
      "outputs": [
        {
          "internalType": "bool",
          "name": "",
          "type": "bool"
        }
      ],
      "stateMutability": "view",
      "type": "function"
    },
    {
      "inputs": [],
      "name": "renounceOwnership",
      "outputs": [],
      "stateMutability": "nonpayable",
      "type": "function"
    },
    {
      "inputs": [
        {
          "internalType": "address",
          "name": "from",
          "type": "address"
        },
        {
          "internalType": "address",
          "name": "to",
          "type": "address"
        },
        {
          "internalType": "uint256",
          "name": "tokenId",
          "type": "uint256"
        }
      ],
      "name": "safeTransferFrom",
      "outputs": [],
      "stateMutability": "nonpayable",
      "type": "function"
    },
    {
      "inputs": [
        {
          "internalType": "address",
          "name": "from",
          "type": "address"
        },
        {
          "internalType": "address",
          "name": "to",
          "type": "address"
        },
        {
          "internalType": "uint256",
          "name": "tokenId",
          "type": "uint256"
        },
        {
          "internalType": "bytes",
          "name": "data",
          "type": "bytes"
        }
      ],
      "name": "safeTransferFrom",
      "outputs": [],
      "stateMutability": "nonpayable",
      "type": "function"
    },
    {
      "inputs": [
        {
          "internalType": "address",
          "name": "operator",
          "type": "address"
        },
        {
          "internalType": "bool",
          "name": "approved",
          "type": "bool"
        }
      ],
      "name": "setApprovalForAll",
      "outputs": [],
      "stateMutability": "nonpayable",
      "type": "function"
    },
    {
      "inputs": [
        {
          "internalType": "uint256",
          "name": "_price",
          "type": "uint256"
        }
      ],
      "name": "setPrice",
      "outputs": [],
      "stateMutability": "nonpayable",
      "type": "function"
    },
    {
      "inputs": [
        {
          "internalType": "bytes4",
          "name": "interfaceId",
          "type": "bytes4"
        }
      ],
      "name": "supportsInterface",
      "outputs": [
        {
          "internalType": "bool",
          "name": "",
          "type": "bool"
        }
      ],
      "stateMutability": "view",
      "type": "function"
    },
    {
      "inputs": [],
      "name": "symbol",
      "outputs": [
        {
          "internalType": "string",
          "name": "",
          "type": "string"
        }
      ],
      "stateMutability": "view",
      "type": "function"
    },
    {
      "inputs": [],
      "name": "ticketPrice",
      "outputs": [
        {
          "internalType": "uint256",
          "name": "",
          "type": "uint256"
        }
      ],
      "stateMutability": "view",
      "type": "function"
    },
    {
      "inputs": [],
      "name": "tokenIdCounter",
      "outputs": [
        {
          "internalType": "uint256",
          "name": "_value",
          "type": "uint256"
        }
      ],
      "stateMutability": "view",
      "type": "function"
    },
    {
      "inputs": [
        {
          "internalType": "uint256",
          "name": "tokenId",
          "type": "uint256"
        }
      ],
      "name": "tokenURI",
      "outputs": [
        {
          "internalType": "string",
          "name": "",
          "type": "string"
        }
      ],
      "stateMutability": "view",
      "type": "function"
    },
    {
      "inputs": [],
      "name": "totalSupply",
      "outputs": [
        {
          "internalType": "uint256",
          "name": "",
          "type": "uint256"
        }
      ],
      "stateMutability": "view",
      "type": "function"
    },
    {
      "inputs": [
        {
          "internalType": "address",
          "name": "from",
          "type": "address"
        },
        {
          "internalType": "address",
          "name": "to",
          "type": "address"
        },
        {
          "internalType": "uint256",
          "name": "tokenId",
          "type": "uint256"
        }
      ],
      "name": "transferFrom",
      "outputs": [],
      "stateMutability": "nonpayable",
      "type": "function"
    },
    {
      "inputs": [
        {
          "internalType": "address",
          "name": "newOwner",
          "type": "address"
        }
      ],
      "name": "transferOwnership",
      "outputs": [],
      "stateMutability": "nonpayable",
      "type": "function"
    },
    {
      "inputs": [],
      "name": "unpause",
      "outputs": [],
      "stateMutability": "nonpayable",
      "type": "function"
    },
    {
      "inputs": [],
      "name": "withdraw",
      "outputs": [],
      "stateMutability": "nonpayable",
      "type": "function"
    }
  ],
  "transactionHash": "0x7a5f0815160089605932093039e4c6991c01793b75ffa0e3cf31424415b7fbf9",
  "args": [
    "Bad Bunny 2023",
    "BB",
    "https://indigo-academic-mandrill-845.mypinata.cloud/ipfs/QmXJgWy23DnYwCTPKNYKYcgjY9i5t6VaFessXR9x6en8Po",
    100
  ],
  "numDeployments": 9,
  "solcInputHash": "04a92a38a607ef7e2a14e10a133c84cf",
  "bytecode": "0x60806040523480156200001157600080fd5b5060405162001caf38038062001caf833981016040819052620000349162000260565b8351849084906200004d90600090602085019062000103565b5080516200006390600190602084019062000103565b50506006805460ff19169055506200007b33620000a9565b600160075562ffffff811660095581516200009e90600890602085019062000103565b505050505062000360565b600680546001600160a01b03838116610100818102610100600160a81b031985161790945560405193909204169182907f8be0079c531659141344cd1fd0a4f28419497f9722a3daafe3b4186f6b6457e090600090a35050565b82805462000111906200030d565b90600052602060002090601f01602090048101928262000135576000855562000180565b82601f106200015057805160ff191683800117855562000180565b8280016001018555821562000180579182015b828111156200018057825182559160200191906001019062000163565b506200018e92915062000192565b5090565b5b808211156200018e576000815560010162000193565b600082601f830112620001bb57600080fd5b81516001600160401b0380821115620001d857620001d86200034a565b604051601f8301601f19908116603f011681019082821181831017156200020357620002036200034a565b816040528381526020925086838588010111156200022057600080fd5b600091505b8382101562000244578582018301518183018401529082019062000225565b83821115620002565760008385830101525b9695505050505050565b600080600080608085870312156200027757600080fd5b84516001600160401b03808211156200028f57600080fd5b6200029d88838901620001a9565b95506020870151915080821115620002b457600080fd5b620002c288838901620001a9565b94506040870151915080821115620002d957600080fd5b50620002e887828801620001a9565b925050606085015162ffffff811681146200030257600080fd5b939692955090935050565b600181811c908216806200032257607f821691505b602082108114156200034457634e487b7160e01b600052602260045260246000fd5b50919050565b634e487b7160e01b600052604160045260246000fd5b61193f80620003706000396000f3fe6080604052600436106101815760003560e01c806370a08231116100d157806398bdf6f51161008a578063b88d4fde11610064578063b88d4fde14610414578063c87b56dd14610434578063e985e9c514610454578063f2fde38b1461049d57600080fd5b806398bdf6f5146103c85780639abc8320146103df578063a22cb465146103f457600080fd5b806370a0823114610326578063715018a6146103465780638456cb591461035b5780638da5cb5b1461037057806391b7f5ed1461039357806395d89b41146103b357600080fd5b806318160ddd1161013e5780633f4ba83a116101185780633f4ba83a146102b957806342842e0e146102ce5780635c975abb146102ee5780636352211e1461030657600080fd5b806318160ddd1461026e57806323b872dd146102845780633ccfd60b146102a457600080fd5b806301ffc9a71461018657806306fdde03146101bb578063081812fc146101dd57806308e9bd2614610215578063095ea7b3146102365780631209b1f614610258575b600080fd5b34801561019257600080fd5b506101a66101a13660046116cd565b6104bd565b60405190151581526020015b60405180910390f35b3480156101c757600080fd5b506101d061050f565b6040516101b291906117aa565b3480156101e957600080fd5b506101fd6101f8366004611707565b6105a1565b6040516001600160a01b0390911681526020016101b2565b6102286102233660046114fa565b6105c8565b6040519081526020016101b2565b34801561024257600080fd5b506102566102513660046116a3565b6107e6565b005b34801561026457600080fd5b50610228600a5481565b34801561027a57600080fd5b5061022860095481565b34801561029057600080fd5b5061025661029f36600461154f565b6108fc565b3480156102b057600080fd5b5061025661092d565b3480156102c557600080fd5b50610256610968565b3480156102da57600080fd5b506102566102e936600461154f565b61097a565b3480156102fa57600080fd5b5060065460ff166101a6565b34801561031257600080fd5b506101fd610321366004611707565b610995565b34801561033257600080fd5b506102286103413660046114fa565b6109f5565b34801561035257600080fd5b50610256610a7b565b34801561036757600080fd5b50610256610a8d565b34801561037c57600080fd5b5060065461010090046001600160a01b03166101fd565b34801561039f57600080fd5b506102566103ae366004611707565b610a9d565b3480156103bf57600080fd5b506101d0610ae0565b3480156103d457600080fd5b50600b546102289081565b3480156103eb57600080fd5b506101d0610aef565b34801561040057600080fd5b5061025661040f366004611667565b610b7d565b34801561042057600080fd5b5061025661042f36600461158b565b610b88565b34801561044057600080fd5b506101d061044f366004611707565b610bc0565b34801561046057600080fd5b506101a661046f36600461151c565b6001600160a01b03918216600090815260056020908152604080832093909416825291909152205460ff1690565b3480156104a957600080fd5b506102566104b83660046114fa565b610bd3565b60006001600160e01b031982166380ac58cd60e01b14806104ee57506001600160e01b03198216635b5e139f60e01b145b8061050957506301ffc9a760e01b6001600160e01b03198316145b92915050565b60606000805461051e9061188c565b80601f016020809104026020016040519081016040528092919081815260200182805461054a9061188c565b80156105975780601f1061056c57610100808354040283529160200191610597565b820191906000526020600020905b81548152906001019060200180831161057a57829003601f168201915b5050505050905090565b60006105ac82610c4c565b506000908152600460205260409020546001600160a01b031690565b6000600260075414156106225760405162461bcd60e51b815260206004820152601f60248201527f5265656e7472616e637947756172643a207265656e7472616e742063616c6c0060448201526064015b60405180910390fd5b6002600755600954600b5411156106875760405162461bcd60e51b815260206004820152602360248201527f416c6c207469636b657473206f6620636f6e74726163742077657265206d696e6044820152621d195960ea1b6064820152608401610619565b600a546106d65760405162461bcd60e51b815260206004820152601c60248201527f4120707269636520686173206e6f74206265656e2073657420796574000000006044820152606401610619565b34600a5411156107285760405162461bcd60e51b815260206004820152601a60248201527f45746865722076616c7565206973206e6f7420636f72726563740000000000006044820152606401610619565b61073182610cab565b600a543411156107d9576000600a543461074b9190611875565b604051909150600090339083908381818185875af1925050503d8060008114610790576040519150601f19603f3d011682016040523d82523d6000602084013e610795565b606091505b50509050806107d65760405162461bcd60e51b815260206004820152600d60248201526c1c99599d5b990819985a5b1959609a1b6044820152606401610619565b50505b5050600b54600160075590565b60006107f182610995565b9050806001600160a01b0316836001600160a01b0316141561085f5760405162461bcd60e51b815260206004820152602160248201527f4552433732313a20617070726f76616c20746f2063757272656e74206f776e656044820152603960f91b6064820152608401610619565b336001600160a01b038216148061087b575061087b813361046f565b6108ed5760405162461bcd60e51b815260206004820152603e60248201527f4552433732313a20617070726f76652063616c6c6572206973206e6f7420746f60448201527f6b656e206f776e6572206e6f7220617070726f76656420666f7220616c6c00006064820152608401610619565b6108f78383610cd0565b505050565b6109063382610d3e565b6109225760405162461bcd60e51b81526004016106199061180f565b6108f7838383610dbd565b610935610f59565b6040514790339082156108fc029083906000818181858888f19350505050158015610964573d6000803e3d6000fd5b5050565b610970610f59565b610978610fb9565b565b6108f783838360405180602001604052806000815250610b88565b6000818152600260205260408120546001600160a01b0316806105095760405162461bcd60e51b8152602060048201526018602482015277115490cdcc8c4e881a5b9d985b1a59081d1bdad95b88125160421b6044820152606401610619565b60006001600160a01b038216610a5f5760405162461bcd60e51b815260206004820152602960248201527f4552433732313a2061646472657373207a65726f206973206e6f7420612076616044820152683634b21037bbb732b960b91b6064820152608401610619565b506001600160a01b031660009081526003602052604090205490565b610a83610f59565b610978600061100b565b610a95610f59565b610978611065565b610aa5610f59565b600a8190556040518181527f6bfd5e75539a9d2626425a2e2922675256b219fe546d63dad56011759b9a2f669060200160405180910390a150565b60606001805461051e9061188c565b60088054610afc9061188c565b80601f0160208091040260200160405190810160405280929190818152602001828054610b289061188c565b8015610b755780601f10610b4a57610100808354040283529160200191610b75565b820191906000526020600020905b815481529060010190602001808311610b5857829003601f168201915b505050505081565b6109643383836110a2565b610b923383610d3e565b610bae5760405162461bcd60e51b81526004016106199061180f565b610bba84848484611171565b50505050565b6060610bcb82610c4c565b6105096111a4565b610bdb610f59565b6001600160a01b038116610c405760405162461bcd60e51b815260206004820152602660248201527f4f776e61626c653a206e6577206f776e657220697320746865207a65726f206160448201526564647265737360d01b6064820152608401610619565b610c498161100b565b50565b6000818152600260205260409020546001600160a01b0316610c495760405162461bcd60e51b8152602060048201526018602482015277115490cdcc8c4e881a5b9d985b1a59081d1bdad95b88125160421b6044820152606401610619565b6000610cb6600b5490565b9050610cc6600b80546001019055565b61096482826111b3565b600081815260046020526040902080546001600160a01b0319166001600160a01b0384169081179091558190610d0582610995565b6001600160a01b03167f8c5be1e5ebec7d5bd14f71427d1e84f3dd0314c0f7b2291e5b200ac8c7c3b92560405160405180910390a45050565b600080610d4a83610995565b9050806001600160a01b0316846001600160a01b03161480610d9157506001600160a01b0380821660009081526005602090815260408083209388168352929052205460ff165b80610db55750836001600160a01b0316610daa846105a1565b6001600160a01b0316145b949350505050565b826001600160a01b0316610dd082610995565b6001600160a01b031614610e345760405162461bcd60e51b815260206004820152602560248201527f4552433732313a207472616e736665722066726f6d20696e636f72726563742060448201526437bbb732b960d91b6064820152608401610619565b6001600160a01b038216610e965760405162461bcd60e51b8152602060048201526024808201527f4552433732313a207472616e7366657220746f20746865207a65726f206164646044820152637265737360e01b6064820152608401610619565b610ea1600082610cd0565b6001600160a01b0383166000908152600360205260408120805460019290610eca908490611875565b90915550506001600160a01b0382166000908152600360205260408120805460019290610ef890849061185d565b909155505060008181526002602052604080822080546001600160a01b0319166001600160a01b0386811691821790925591518493918716917fddf252ad1be2c89b69c2b068fc378daa952ba7f163c4a11628f55a4df523b3ef91a4505050565b6006546001600160a01b036101009091041633146109785760405162461bcd60e51b815260206004820181905260248201527f4f776e61626c653a2063616c6c6572206973206e6f7420746865206f776e65726044820152606401610619565b610fc16111cd565b6006805460ff191690557f5db9ee0a495bf2e6ff9c91a7834c1ba4fdd244a5e8aa4e537bd38aeae4b073aa335b6040516001600160a01b03909116815260200160405180910390a1565b600680546001600160a01b03838116610100818102610100600160a81b031985161790945560405193909204169182907f8be0079c531659141344cd1fd0a4f28419497f9722a3daafe3b4186f6b6457e090600090a35050565b61106d611216565b6006805460ff191660011790557f62e78cea01bee320cd4e420270b5ea74000d11b0c9f74754ebdbfc544b05a258610fee3390565b816001600160a01b0316836001600160a01b031614156111045760405162461bcd60e51b815260206004820152601960248201527f4552433732313a20617070726f766520746f2063616c6c6572000000000000006044820152606401610619565b6001600160a01b03838116600081815260056020908152604080832094871680845294825291829020805460ff191686151590811790915591519182527f17307eab39ab6107e8899845ad3d59bd9653f200f220920489ca2b5937696c31910160405180910390a3505050565b61117c848484610dbd565b6111888484848461125c565b610bba5760405162461bcd60e51b8152600401610619906117bd565b60606008805461051e9061188c565b610964828260405180602001604052806000815250611369565b60065460ff166109785760405162461bcd60e51b815260206004820152601460248201527314185d5cd8589b194e881b9bdd081c185d5cd95960621b6044820152606401610619565b60065460ff16156109785760405162461bcd60e51b815260206004820152601060248201526f14185d5cd8589b194e881c185d5cd95960821b6044820152606401610619565b60006001600160a01b0384163b1561135e57604051630a85bd0160e11b81526001600160a01b0385169063150b7a02906112a090339089908890889060040161176d565b602060405180830381600087803b1580156112ba57600080fd5b505af19250505080156112ea575060408051601f3d908101601f191682019092526112e7918101906116ea565b60015b611344573d808015611318576040519150601f19603f3d011682016040523d82523d6000602084013e61131d565b606091505b50805161133c5760405162461bcd60e51b8152600401610619906117bd565b805181602001fd5b6001600160e01b031916630a85bd0160e11b149050610db5565b506001949350505050565b611373838361139c565b611380600084848461125c565b6108f75760405162461bcd60e51b8152600401610619906117bd565b6001600160a01b0382166113f25760405162461bcd60e51b815260206004820181905260248201527f4552433732313a206d696e7420746f20746865207a65726f20616464726573736044820152606401610619565b6000818152600260205260409020546001600160a01b0316156114575760405162461bcd60e51b815260206004820152601c60248201527f4552433732313a20746f6b656e20616c7265616479206d696e746564000000006044820152606401610619565b6001600160a01b038216600090815260036020526040812080546001929061148090849061185d565b909155505060008181526002602052604080822080546001600160a01b0319166001600160a01b03861690811790915590518392907fddf252ad1be2c89b69c2b068fc378daa952ba7f163c4a11628f55a4df523b3ef908290a45050565b80356001600160a01b03811681146114f557600080fd5b919050565b60006020828403121561150c57600080fd5b611515826114de565b9392505050565b6000806040838503121561152f57600080fd5b611538836114de565b9150611546602084016114de565b90509250929050565b60008060006060848603121561156457600080fd5b61156d846114de565b925061157b602085016114de565b9150604084013590509250925092565b600080600080608085870312156115a157600080fd5b6115aa856114de565b93506115b8602086016114de565b925060408501359150606085013567ffffffffffffffff808211156115dc57600080fd5b818701915087601f8301126115f057600080fd5b813581811115611602576116026118dd565b604051601f8201601f19908116603f0116810190838211818310171561162a5761162a6118dd565b816040528281528a602084870101111561164357600080fd5b82602086016020830137600060208483010152809550505050505092959194509250565b6000806040838503121561167a57600080fd5b611683836114de565b91506020830135801515811461169857600080fd5b809150509250929050565b600080604083850312156116b657600080fd5b6116bf836114de565b946020939093013593505050565b6000602082840312156116df57600080fd5b8135611515816118f3565b6000602082840312156116fc57600080fd5b8151611515816118f3565b60006020828403121561171957600080fd5b5035919050565b6000815180845260005b818110156117465760208185018101518683018201520161172a565b81811115611758576000602083870101525b50601f01601f19169290920160200192915050565b6001600160a01b03858116825284166020820152604081018390526080606082018190526000906117a090830184611720565b9695505050505050565b6020815260006115156020830184611720565b60208082526032908201527f4552433732313a207472616e7366657220746f206e6f6e20455243373231526560408201527131b2b4bb32b91034b6b83632b6b2b73a32b960711b606082015260800190565b6020808252602e908201527f4552433732313a2063616c6c6572206973206e6f7420746f6b656e206f776e6560408201526d1c881b9bdc88185c1c1c9bdd995960921b606082015260800190565b60008219821115611870576118706118c7565b500190565b600082821015611887576118876118c7565b500390565b600181811c908216806118a057607f821691505b602082108114156118c157634e487b7160e01b600052602260045260246000fd5b50919050565b634e487b7160e01b600052601160045260246000fd5b634e487b7160e01b600052604160045260246000fd5b6001600160e01b031981168114610c4957600080fdfea2646970667358221220d70f09360aaefe3429417607d19409f2827e21a65fe5bc2af5cf6907a6b82d9b64736f6c63430008070033",
  "devdoc": {
    "kind": "dev",
    "methods": {
      "approve(address,uint256)": {
        "details": "See {IERC721-approve}."
      },
      "balanceOf(address)": {
        "details": "See {IERC721-balanceOf}."
      },
      "getApproved(uint256)": {
        "details": "See {IERC721-getApproved}."
      },
      "isApprovedForAll(address,address)": {
        "details": "See {IERC721-isApprovedForAll}."
      },
      "name()": {
        "details": "See {IERC721Metadata-name}."
      },
      "owner()": {
        "details": "Returns the address of the current owner."
      },
      "ownerOf(uint256)": {
        "details": "See {IERC721-ownerOf}."
      },
      "paused()": {
        "details": "Returns true if the contract is paused, and false otherwise."
      },
      "renounceOwnership()": {
        "details": "Leaves the contract without owner. It will not be possible to call `onlyOwner` functions anymore. Can only be called by the current owner. NOTE: Renouncing ownership will leave the contract without an owner, thereby removing any functionality that is only available to the owner."
      },
      "safeTransferFrom(address,address,uint256)": {
        "details": "See {IERC721-safeTransferFrom}."
      },
      "safeTransferFrom(address,address,uint256,bytes)": {
        "details": "See {IERC721-safeTransferFrom}."
      },
      "setApprovalForAll(address,bool)": {
        "details": "See {IERC721-setApprovalForAll}."
      },
      "supportsInterface(bytes4)": {
        "details": "See {IERC165-supportsInterface}."
      },
      "symbol()": {
        "details": "See {IERC721Metadata-symbol}."
      },
      "tokenURI(uint256)": {
        "details": "See {IERC721Metadata-tokenURI}."
      },
      "transferFrom(address,address,uint256)": {
        "details": "See {IERC721-transferFrom}."
      },
      "transferOwnership(address)": {
        "details": "Transfers ownership of the contract to a new account (`newOwner`). Can only be called by the current owner."
      }
    },
    "version": 1
  },
  "userdoc": {
    "kind": "user",
    "methods": {},
    "notice": "TODO CHANGE CONTRACT FOR RESELL MARKETPLACE TODO CHANGE CONTRACT FOR TICKET ERC1155 allows to create more complex tickets",
    "version": 1
  },
  "storageLayout": {
    "storage": [
      {
        "astId": 286,
        "contract": "solidity/contracts/Ticket.sol:Ticket",
        "label": "_name",
        "offset": 0,
        "slot": "0",
        "type": "t_string_storage"
      },
      {
        "astId": 288,
        "contract": "solidity/contracts/Ticket.sol:Ticket",
        "label": "_symbol",
        "offset": 0,
        "slot": "1",
        "type": "t_string_storage"
      },
      {
        "astId": 292,
        "contract": "solidity/contracts/Ticket.sol:Ticket",
        "label": "_owners",
        "offset": 0,
        "slot": "2",
        "type": "t_mapping(t_uint256,t_address)"
      },
      {
        "astId": 296,
        "contract": "solidity/contracts/Ticket.sol:Ticket",
        "label": "_balances",
        "offset": 0,
        "slot": "3",
        "type": "t_mapping(t_address,t_uint256)"
      },
      {
        "astId": 300,
        "contract": "solidity/contracts/Ticket.sol:Ticket",
        "label": "_tokenApprovals",
        "offset": 0,
        "slot": "4",
        "type": "t_mapping(t_uint256,t_address)"
      },
      {
        "astId": 306,
        "contract": "solidity/contracts/Ticket.sol:Ticket",
        "label": "_operatorApprovals",
        "offset": 0,
        "slot": "5",
        "type": "t_mapping(t_address,t_mapping(t_address,t_bool))"
      },
      {
        "astId": 130,
        "contract": "solidity/contracts/Ticket.sol:Ticket",
        "label": "_paused",
        "offset": 0,
        "slot": "6",
        "type": "t_bool"
      },
      {
        "astId": 7,
        "contract": "solidity/contracts/Ticket.sol:Ticket",
        "label": "_owner",
        "offset": 1,
        "slot": "6",
        "type": "t_address"
      },
      {
        "astId": 231,
        "contract": "solidity/contracts/Ticket.sol:Ticket",
        "label": "_status",
        "offset": 0,
        "slot": "7",
        "type": "t_uint256"
      },
      {
        "astId": 1968,
        "contract": "solidity/contracts/Ticket.sol:Ticket",
        "label": "baseUri",
        "offset": 0,
        "slot": "8",
        "type": "t_string_storage"
      },
      {
        "astId": 1970,
        "contract": "solidity/contracts/Ticket.sol:Ticket",
        "label": "totalSupply",
        "offset": 0,
        "slot": "9",
        "type": "t_uint256"
      },
      {
        "astId": 1972,
        "contract": "solidity/contracts/Ticket.sol:Ticket",
        "label": "ticketPrice",
        "offset": 0,
        "slot": "10",
        "type": "t_uint256"
      },
      {
        "astId": 1975,
        "contract": "solidity/contracts/Ticket.sol:Ticket",
        "label": "tokenIdCounter",
        "offset": 0,
        "slot": "11",
        "type": "t_struct(Counter)1611_storage"
      }
    ],
    "types": {
      "t_address": {
        "encoding": "inplace",
        "label": "address",
        "numberOfBytes": "20"
      },
      "t_bool": {
        "encoding": "inplace",
        "label": "bool",
        "numberOfBytes": "1"
      },
      "t_mapping(t_address,t_bool)": {
        "encoding": "mapping",
        "key": "t_address",
        "label": "mapping(address => bool)",
        "numberOfBytes": "32",
        "value": "t_bool"
      },
      "t_mapping(t_address,t_mapping(t_address,t_bool))": {
        "encoding": "mapping",
        "key": "t_address",
        "label": "mapping(address => mapping(address => bool))",
        "numberOfBytes": "32",
        "value": "t_mapping(t_address,t_bool)"
      },
      "t_mapping(t_address,t_uint256)": {
        "encoding": "mapping",
        "key": "t_address",
        "label": "mapping(address => uint256)",
        "numberOfBytes": "32",
        "value": "t_uint256"
      },
      "t_mapping(t_uint256,t_address)": {
        "encoding": "mapping",
        "key": "t_uint256",
        "label": "mapping(uint256 => address)",
        "numberOfBytes": "32",
        "value": "t_address"
      },
      "t_string_storage": {
        "encoding": "bytes",
        "label": "string",
        "numberOfBytes": "32"
      },
      "t_struct(Counter)1611_storage": {
        "encoding": "inplace",
        "label": "struct Counters.Counter",
        "members": [
          {
            "astId": 1610,
            "contract": "solidity/contracts/Ticket.sol:Ticket",
            "label": "_value",
            "offset": 0,
            "slot": "0",
            "type": "t_uint256"
          }
        ],
        "numberOfBytes": "32"
      },
      "t_uint256": {
        "encoding": "inplace",
        "label": "uint256",
        "numberOfBytes": "32"
      }
    }
  }
}